:020000040800F2
:100000003804002045010008150600080D06000808
:1000100011060008B9010008930A0008000000005A
:100020000000000000000000000000000D070008B4
:10003000B30400080000000017060008F9070008D4
:100040005F0100085F0100085F0100085F01000810
:100050005F0100085F0100085F0100085F01000800
:100060005F0100085F0100085F0100085F010008F0
:100070005F0100085F0100085F0100085F010008E0
:100080005F0100085F0100085F0100085F010008D0
:100090005F0100085F0100085F0100085F010008C0
:1000A0005F0100085F0100085F0100085F010008B0
:1000B0005F0100085F0100085F0100085F010008A0
:1000C0005F0100085F0100085F0100085F01000890
:1000D0005F0100085F0100085F0100085F01000880
:1000E0005F0100085F0100085F0100085F01000870
:1000F0005F0100085F0100085F0100085F01000860
:100100005F0100085F0100085F0100085F0100084F
:100110005F0100085F0100085F0100085F0100083F
:100120005F0100085F0100085F0100085F0100082F
:10013000DFF80CD000F02EF800480047750C0008DE
:10014000380400200648804706480047FEE7FEE7DF
:10015000FEE7FEE7FEE7FEE7FEE7FEE7FEE7FEE777
:100160007D0800083101000830B50B46014600202B
:100170002022012409E021FA02F59D4205D303FA69
:1001800002F5491B04FA02F52844151EA2F10102EA
:10019000F1DC30BD064C074D06E0E06840F001039D
:1001A00094E8070098471034AC42F6D3FFF7C4FF39
:1001B000780E0008980E000800BFFEE710B54FF457
:1001C0008051024800F01EFA10BD0000000C0140F2
:1001D00010B54FF48051024800F016FA10BD00002F
:1001E000000C014010B54FF48051024800F001FAB4
:1001F00010BD0000000C014008B50121082000F0EE
:100200000BFA4FF48050ADF8000010208DF8030079
:1002100003208DF802006946014800F05FF908BD2F
:10022000000C014010B54FF48051024800F0ECF989
:1002300010BD0000000C014008B54FF48050ADF82F
:10024000000048208DF803006946024800F046F996
:1002500008BD0000000C014008B54FF48050ADF817
:10026000000010208DF8030003208DF8020069467D
:10027000014800F033F908BD000C014010B54FF4FF
:100280000051024800F0BEF910BD0000000C014012
:1002900010B54FF40051024800F0B6F910BD00004F
:1002A000000C014010B54FF40051024800F0A1F9D4
:1002B00010BD0000000C014008B50121082000F02D
:1002C000ABF94FF40050ADF8000010208DF803009A
:1002D00003208DF802006946014800F0FFF808BDD0
:1002E000000C014010B54FF40051024800F08CF9A9
:1002F00010BD0000000C014008B54FF40050ADF8EF
:10030000000048208DF803006946024800F0E6F836
:1003100008BD0000000C014008B54FF40050ADF8D6
:10032000000010208DF8030003208DF802006946BC
:10033000014800F0D3F808BD000C014070B5044638
:100340001648A0601648E0601648206116486061B3
:100350001648A0611648E061164820621649E1621D
:1003600016492163164961631649A1631649E16381
:10037000164921641649616400250CE005EBC501AE
:1003800004EB81018868804705EBC50104EB81011E
:10039000C86880476D1C022DF0DB70BDF9010008B4
:1003A000250200085902000839020008BD010008B2
:1003B000D1010008E5010008B9020008E5020008C3
:1003C00019030008F90200087D02000891020008E4
:1003D000A502000870B50446002600251EE000BFF7
:1003E000206A80470028FBD0282000F063F8206AAC
:1003F000804701280BD100BF206A80470128FBD02D
:10040000C5F1070101208840C0B2064304E0C5F1F0
:100410000701012088408643681CC5B2082DDEDB39
:10042000304670BD10B5044620698047A0698047FA
:1004300044F2506000F03EF8E06980471E2000F072
:1004400039F860698047206A804778BB00BF206A1E
:1004500080470028FBD000BF206A80470128FBD0DE
:100460002046FFF7B7FF20702046FFF7B3FF60700C
:100470002046FFF7AFFFA0702046FFF7ABFFE0700C
:100480002046FFF7A7FF207120698047E069804779
:10049000207861780844A1780844E17808442179FB
:1004A000884201D1012010BD0020FCE7FFE70020B9
:1004B000F9E7704701B50849009808604FF0E0205F
:1004C000006940F001004FF0E021086100BF0248E0
:1004D00000680028FBD108BD280000202DE9F0416C
:1004E000024600250026002000230024002791F862
:1004F00003C00CF00F0591F803C00CF0100CBCF118
:10050000000F03D091F802C04CEA050591F800C035
:10051000BCF1000F31D0146800202BE04FF0010C2B
:100520000CFA00F3B1F800C00CEA03069E4220D199
:1005300083004FF00F0C0CFA03F7BC4305FA03FCE1
:100540004CEA040491F803C0BCF1280F06D14FF027
:10055000010C0CFA00FCC2F814C00AE091F803C0C8
:10056000BCF1480F05D14FF0010C0CFA00FCC2F8A9
:1005700010C0401C0828D1D31460B1F800C0BCF1F1
:10058000FF0F34DD546800202EE000F1080C4FF01E
:10059000010808FA0CF3B1F800C00CEA03069E4209
:1005A00021D183004FF00F0C0CFA03F7BC4305FA7E
:1005B00003FC4CEA040491F803C0BCF1280F05D1F8
:1005C00000F1080C08FA0CF8C2F8148091F803C086
:1005D000BCF1480F07D100F1080C4FF0010808FAF0
:1005E0000CF8C2F81080401C0828CED35460BDE837
:1005F000F0810246002093680B400BB1012000E01F
:1006000000207047416170470161704700BFFEE7FD
:1006100000BFFEE77047704729B1064A926902435E
:10062000044B9A6104E0034A92698243014B9A6148
:10063000704700000010024030B500210022002465
:1006400000232D4D6D6805F00C0121B1042905D062
:10065000082923D105E0294D056022E0274D0560DA
:100660001FE0254D6D6805F47012234D6D6805F48B
:100670008034022505EB92421CB9214D554305609B
:100680000BE01D4D6D6805F400351DB11C4D554343
:10069000056002E0194D5543056002E0174D056005
:1006A00000BF00BF144D6D6805F0F0010909154D3C
:1006B0006B5C0568DD4045600F4D6D6805F4E061D9
:1006C000090A104D6B5C4568DD4085600A4D6D6818
:1006D00005F46051C90A0B4D6B5C4568DD40C5608F
:1006E000054D6D6805F44041890B074D6B5CC5688D
:1006F000B5FBF3F5056130BD0010024000127A0031
:1007000000093D001400002024000020704710B5AF
:1007100000F002F810BD00000CB500200190009020
:100720003348006840F480303149086000BF3048E9
:10073000006800F4003000900198401C019000987F
:1007400018B90198B0F5A06FF1D12948006800F4FC
:10075000003010B10120009001E0002000900098CE
:10076000012843D12348006840F010002149086067
:100770000846006820F0030008600846006840F062
:10078000020008601A4840681949486008464068F5
:1007900048600846406840F4806048600846406809
:1007A00020F47C1048600846406840F4E810486037
:1007B0000846006840F08070086000BF0C48006880
:1007C00000F000700028F9D00948406820F00300CC
:1007D000074948600846406840F00200486000BF92
:1007E0000348406800F00C000828F9D10CBD000057
:1007F000001002400020024010B500F06FF810BD5C
:1008000030B51A4800681A4AB0FBF2F1B1F1807FA6
:1008100001D301201DE021F07F40401E4FF0E02277
:10082000506150170F22002807DA13071D0E114BD5
:1008300000F00F04241F1D5503E013071C0E0E4B80
:100840001C5400BF00204FF0E0229061072010618F
:10085000002008B100BFFEE74FF0E020006920F063
:1008600001004FF0E021086130BD000000000020D1
:1008700040420F0018ED00E000E400E010B513481E
:10088000006840F0010011490860084640681049BE
:1008900008400E494860084600680E4908400B4968
:1008A00008600846006820F4802008600846406818
:1008B00020F4FE0048604FF41F008860FFF727FF18
:1008C0004FF000600449086010BD000000100240B5
:1008D0000000FFF8FFFFF6FE08ED00E004480068A6
:1008E00020B103480068401E0149086070470000BD
:1008F0002800002021B1828942F40052828104E064
:1009000082894DF6FF731A408281704700B585B029
:1009100001210420FFF780FE01218803FFF77CFE00
:100920004FF40070ADF8100018208DF8130003206C
:100930008DF8120004A91348FFF7D0FD4FF4806032
:10094000ADF8100004208DF8130004A90D48FFF73E
:10095000C5FD4FF4E13000900020ADF80400ADF883
:100960000600ADF80800ADF80C000C20ADF80A0048
:100970006946054800F018F801210348FFF7BAFF5F
:1009800005B000BD000801400038014002460020CB
:10099000B1F5007F00D100BF13880B400BB10120DF
:1009A00000E00020704700002DE9F04786B00546C2
:1009B0000E460024A24600BFA1460027B08900B120
:1009C00000BF2F462C8A4CF6FF700440F088044389
:1009D0002C82AC894EF6F3100440B088318908436C
:1009E000718908430443AC81AC8A4FF6FF40044050
:1009F000B0890443AC8201A8FFF71EFE1F4887425E
:100A000002D1DDF810A001E0DDF80CA0A88900F407
:100A1000004040B10AEBCA0000EB0A1031684900FF
:100A2000B0FBF1F807E00AEBCA0000EB0A103168EE
:100A30008900B0FBF1F86420B8FBF0F00401200954
:100A4000642101FB1089A88900F4004040B13220E4
:100A500000EBC900B0FBF1F000F00700044308E030
:100A6000322000EB09106421B0FBF1F000F00F0020
:100A700004432C8106B0BDE8F08700000038014037
:100A800001468888C0F308007047C1F308028280DD
:100A9000704700BFFEE700000FB4054B10B503A977
:100AA000044A029800F018F810BC5DF814FB00002E
:100AB0004D0C00083000002002E008C8121F08C1D9
:100AC000002AFAD170477047002001E001C1121FCF
:100AD000002AFBD1704700002DE9FF4F89B09B46EB
:100AE0000446002506E025280BD05A460B9990476E
:100AF000641C6D1C20780028F5D10DB02846BDE897
:100B0000F08F0027B8460122474900E0074314F858
:100B1000013F203B02FA03F00842F7D120782E284B
:100B200019D114F8010F47F004072A280ED06FF0EE
:100B30002F022078A0F1300109290CD808EB880198
:100B400002EB410100EB0108641CF2E70A98641C07
:100B500050F8048B0A9020780028CED0642808D062
:100B6000692806D075281ED05A460B9990476D1CEF
:100B700058E00A994FF00A0901C90A91002802DADF
:100B800040422D2102E0390504D52B218DF820109B
:100B9000012103E0F90704D02021F7E78A4608AED7
:100BA0000DE00021FAE70A994FF00A0901C90A91FC
:100BB000F7E74946FFF7D8FA303106F8011D00285B
:100BC000F7D1ADEB060000F12009780701D44FF012
:100BD0000108C84502DDA8EB090000E000208046BE
:100BE000002706E008A85A46C05D0B9990476D1C87
:100BF0007F1C5745F6DB04E030205A460B9990479E
:100C00006D1CB8F10001A8F10108F5DC05E016F84B
:100C1000010B5A460B9990476D1CB9F10001A9F1DF
:100C20000109F4DC641C65E70928010010B50446DD
:100C300000BF20210448FFF7A9FE0028F9D0024890
:100C4000FFF71EFF10BD00000038014070B50446DC
:100C50000D46E1B20548FFF718FF00BF80210348A9
:100C6000FFF794FE0028F9D0204670BD00380140FF
:100C7000FFF7DCBF94B0FFF7C3FDFFF747FE02A804
:100C8000FFF75CFB2DA0FFF707FF02A8FFF7CAFBE9
:100C900001280BD19DF80B0000909DF80A309DF8BB
:100CA00009209DF808102BA0FFF7F6FE0BA8FFF710
:100CB000B9FB01280BD19DF82F0000909DF82E3034
:100CC0009DF82D209DF82C1031A0FFF7E5FE3FA0E8
:100CD000FFF7E2FE31E04448FFF7CAFF0446312C3B
:100CE00011D10BA8FFF79EFB012823D19DF80B0023
:100CF00000909DF80A309DF809209DF808103BA04F
:100D0000FFF7CAFE16E0322C11D10BA8FFF78AFBC1
:100D100001280FD19DF82F0000909DF82E309DF8EE
:100D20002D209DF82C1040A0FFF7B6FE02E04DA04C
:100D3000FFF7B2FE4F48FFF7BDFBCCE70D0A2A2AAA
:100D40002AB6E0B5E3B2E2CEC2CFB5CDB32A2A2AA5
:100D50000D0A00000D0AB6C1C8A144485431315FE4
:100D600031B3C9B9A6212020CAAAB6C8CEAA256423
:100D70002E256420A3A5524820A3ACCEC2B6C8CE6F
:100D8000AA2025642E2564A1E6200D0A000000009B
:100D90000D0AB6C1C8A144485431315F32B3C9B954
:100DA000A6212020CAAAB6C8CEAA25642E25642072
:100DB000A3A5524820A3ACCEC2B6C8CEAA202564B3
:100DC0002E2564A1E6200D0A000000000D0AC7EBE5
:100DD000CAE4C8EBD2AAB2E9D5D2B5C4B2E2CEC257
:100DE000BDDAB5E33A0D0A002C0000200D0AB6C1A9
:100DF000C8A144485431315F31B3C9B9A6210D0AA5
:100E00000D0ACAAAB6C8CEAA25642E256420A3A5B9
:100E1000524820A3ACCEC2B6C8CEAA2025642E2547
:100E200064A1E6200D0A00000D0AB6C1C8A144481D
:100E30005431315F32B3C9B9A6210D0A0D0ACAAACD
:100E4000B6C8CEAA25642E256420A3A5524820A3A7
:100E5000ACCEC2B6C8CEAA2025642E2564A1E62059
:100E60000D0A0000BBB9C3BBD3D0B4CBBDDAB5E328
:100E70000D0A000040420F00980E000800000020FC
:100E800034000000B80A0008CC0E0008340000202E
:100E900004040000C80A000800A24A040000000080
:100EA000000000000102030406070809000000001A
:100EB00001020304010203040607080902040608EC
:0C0EC00000000000000000000000000026
:0400000508000131BD
:00000001FF
